:020000040000FA
:1000000098020020D1020000D9020000DB020000AB
:10001000DD020000DF020000E1020000000000003D
:10002000000000000000000000000000E3020000EB
:10003000E502000000000000E7020000851C00004F
:10004000EB020000ED020000EF020000F1020000F0
:10005000F3020000FD1F0000F7020000F90200009B
:10006000FB020000FD020000FF020000010300008F
:10007000030300000503000007030000090300005C
:100080000B0300000D0300000F030000110300002C
:1000900013030000150300001703000019030000FC
:1000A0001B0300001D0300001F03000021030000CC
:1000B000230300002503000027030000290300009C
:1000C0002B0300002D0300002F030000310300006C
:1000D000330300003503000037030000390300003C
:1000E0003B0300003D0300003F030000410300000C
:1000F00043030000450300004703000049030000DC
:100100004B0300004D0300004F03000051030000AB
:10011000530300005503000057030000590300007B
:100120005B0300005D0300005F030000610300004B
:10013000630300006503000067030000690300001B
:100140006B0300006D0300006F03000089030000D3
:1001500000000000000000008B0300008D03000081
:100160008F030000910300000000000093030000D3
:100170009503000097030000990300009B03000013
:100180009D0300009F030000A1030000A3030000E3
:10019000A5030000A7030000A9030000AB030000B3
:1001A000AD030000AF030000B1030000B303000083
:1001B000B5030000B7030000B9030000BB03000053
:1001C000BD030000BF030000C1030000C303000023
:1001D000C5030000C7030000C9030000CB030000F3
:1001E000CD030000CF030000D1030000D3030000C3
:1001F000D5030000D7030000D9030000DB03000093
:1002000000F002F800F03CF80AA090E8000C8244EC
:100210008344AAF10107DA4501D100F031F8AFF2C9
:10022000090EBAE80F0013F0010F18BFFB1A43F0D4
:100230000103184794420000B4420000103A24BF62
:1002400078C878C1FAD8520724BF30C830C144BF3B
:1002500004680C607047000000230024002500267D
:10026000103A28BF78C1FBD8520728BF30C148BF19
:100270000B6070471FB503F096FD1FBD10B510BD94
:1002800000F0FAF81146FFF7F5FF02F0B7FE00F0B4
:1002900018F903B4FFF7F2FF03BC00F01BF90000EC
:1002A0000138FDD170470000EFF3108072B670473F
:1002B000EFF310807047EFF3108062B6704730BFE5
:1002C000704780F311887047EFF31180704700008A
:1002D0004548804745480047FEE7FEE7FEE7FEE762
:1002E000FEE7FEE7FEE7FEE7FEE7FEE7FEE7FEE7E6
:1002F000FEE7FEE7FEE7FEE7FEE7FEE7FEE7FEE7D6
:10030000FEE7FEE7FEE7FEE7FEE7FEE7FEE7FEE7C5
:10031000FEE7FEE7FEE7FEE7FEE7FEE7FEE7FEE7B5
:10032000FEE7FEE7FEE7FEE7FEE7FEE7FEE7FEE7A5
:10033000FEE7FEE7FEE7FEE7FEE7FEE7FEE7FEE795
:10034000FEE7FEE7FEE7FEE7FEE7FEE7FEE7FEE785
:10035000FEE7FEE7FEE7FEE7FEE7FEE7FEE7FEE775
:10036000FEE7FEE7FEE7FEE7FEE7FEE7FEE7FEE765
:10037000FEE7FEE7FEE7FEE7FEE7FEE7FEE7FEE755
:10038000FEE7FEE7FEE7FEE7FEE7FEE7FEE7FEE745
:10039000FEE7FEE7FEE7FEE7FEE7FEE7FEE7FEE735
:1003A000FEE7FEE7FEE7FEE7FEE7FEE7FEE7FEE725
:1003B000FEE7FEE7FEE7FEE7FEE7FEE7FEE7FEE715
:1003C000FEE7FEE7FEE7FEE7FEE7FEE7FEE7FEE705
:1003D000FEE7FEE7FEE7FEE7FEE7FEE70448054925
:1003E000034A054B70470000D91C000001020000C1
:1003F0009800002098020020980000204FF0000292
:1004000000B5134694469646203922BFA0E80C500A
:10041000A0E80C50B1F12001BFF4F7AF090728BFE5
:10042000A0E80C5048BF0CC05DF804EB890028BF61
:1004300040F8042B08BF704748BF20F8022B11F08A
:10044000804F18BF00F8012B704770477047704706
:1004500010B500F009F8006810BD10B5044600F0B2
:1004600003F8046010BD0000004870473800002009
:1004700000487047380000207546FFF7F9FFAE4688
:1004800005006946534620F00700854618B020B5A0
:10049000FFF7A4FFBDE820404FF000064FF0000733
:1004A0004FF000084FF0000B21F00701AC46ACE81C
:1004B000C009ACE8C009ACE8C009ACE8C0098D4689
:1004C000704710B50446AFF300802046BDE81040E9
:1004D000FFF7DFBE01491820ABBEFEE72600020091
:1004E0007047000010B50F4801F07EFB0E4801F088
:1004F0007BFB02210D4800F0FEFA00231A4603217F
:100500000B4800F043F8622300220321084800F062
:1005100086F80321064800F07BF80321044800F028
:1005200009F810BD003800F0040800F00040024057
:1005300000800340012202FA01F1C160704732B12C
:10054000C0684FF0011202FA01F10840704740689C
:1005500001228A4042F48032104010F4803F08BFEC
:10056000704740F470204FF4803202FA01F1884362
:1005700070470A4601F00F0101236FF30F0203FADF
:1005800001F11143826A11438162704730B44469BA
:1005900089004FF00F0C0CFA01FC02F00F0524EA61
:1005A0000C048D402C434461046A03F0030324EAE5
:1005B0000C0C03FA01F14CEA0101016202F00F0197
:1005C0008B1F032B84BF30BC7047C900C3694FF039
:1005D000300C30390CFA01FC02F0300223EA0C0333
:1005E00002FA01F11943C16130BC704700EB4110C0
:1005F00000F14001002003E08B6842F8043B401CFE
:10060000CB6813F4807F18BF70470828F4D3704775
:100610000268012303FA01F111430160704710B42D
:1006200000EB4110910050F840CF0F228A4003F0B8
:100630000F042CEA020C8C404CEA040CC0F800C0F9
:10064000D0F818C0C3F303242CEA020C8C404CEA07
:10065000040CC0F818C0D0F804C0C3F303142CEA8B
:10066000020C8C404CEA040CC0F804C0D0F81CC04A
:10067000C3F303542CEA020C8C404CEA040CC0F87F
:100680001CC013F4702F4FF001040DD0D0F814C02B
:10069000C3F302432CEA02028B401A43426102690F
:1006A00004FA01F1114304E0026904FA01F122EABB
:1006B0000101016110BC704708B503210A48FFF72A
:1006C00058FF00BF002203210748FFF738FF00282A
:1006D000F8D003210448FFF72DFF6A4603210248A2
:1006E000FFF784FF009808BD00800340F0B5B3B069
:1006F0000546C82101A8FFF781FE00260027002437
:10070000002D69D13A480078012865D10020384988
:10071000087000BF08E0FFF7CFFF01A941F82700EC
:10072000142002F057FC7F1C322FF4D3002408E081
:1007300001A850F82400B04202D901A850F8246062
:10074000641C322CF4D32B48066000684FF47A7195
:10075000B0FBF1F0303028490870264800684FF4AB
:100760007A71B0FBF1F201FB12006421B0FBF1F0F1
:100770003030214948701F4800686421B0FBF1F215
:1007800001FB12000A21B0FBF1F030301A498870E9
:10079000184800680A21B0FBF1F201FB120030306A
:1007A0001549C87008460178144801F02EFC12481B
:1007B0004178124801F029FC0F4881780F4801F078
:1007C00024FC0D48C1780D4801F01FFC0A4841790E
:1007D0000A4801F01AFC07E0012D05D10448007811
:1007E00010B9012002490870304633B0F0BD000056
:1007F0001F000020080000200C00002000C0004066
:1008000010B50749074800F0D3FF0749086000F01A
:1008100021F801F01BFA01F037FC00F0D9F910BD06
:10082000002D3101800600F104000020D0F80034D2
:1008300012F0010F14BF0B438B43C0F8003412F0C9
:10084000020FD0F8202414BF114322EA0101C0F89E
:100850002014704710B5414801F0C6F900BF3F4869
:1008600001F0D6F90028FAD03C48801E01F0BCF90E
:1008700000BF3A48801E01F0CBF90028F9D00F21C3
:10088000374800F054F90121364800F042F90A23B4
:1008900001221146334800F06DF83048401E01F047
:1008A000A3F900BF2D48401E01F0B2F90028F9D08D
:1008B0002A48401C01F098F900BF2848401C01F06C
:1008C000A7F90028F9D03021274800F030F901219C
:1008D000264800F02CF92148C01E01F085F900BF20
:1008E0001E48C01E01F094F90028F9D01B48401C96
:1008F00001F07AF900BF1948401C01F089F900287D
:10090000F9D01648C01C01F06FF900BF1348C01C95
:1009100001F07EF90028F9D03021134800F007F9E2
:10092000C621124800F003F92021104800F0FFF81A
:100930000A48801C01F058F900BF0848801C01F0EB
:1009400067F90028F9D00821094800F0F0F80822DA
:100950001146074800F007F910BD00000A0800F032
:100960000020064000D00340001006400030064042
:10097000004006402DE9F00301264FF0000C03254E
:10098000C2F3411706FA0CF40C4211D0D0F8C48F10
:100990004FEA4C0405FA04F928EA0908C0F8C48FA4
:1009A000D0F8C48F07FA04F448EA0404C0F8C44F2E
:1009B0000CF1010C0CF0FF0CBCF1080FE2D3D0F8E5
:1009C00000C512F0010F14BF4CEA010C2CEA010C17
:1009D000C0F800C5D0F804C512F0020F14BF4CEAED
:1009E000010C2CEA010CC0F804C5D0F808C512F0BF
:1009F000040F14BF4CEA010C2CEA010CC0F808C526
:100A0000D0F818C512F0080F14BF4CEA010C2CEAFC
:100A1000010CC0F818C512F0100FD0F83C2514BF17
:100A20000A438A43C0F83C25D0F80C2513F0010F87
:100A300014BF0A438A43C0F80C25D0F8102513F0E0
:100A4000020F14BF0A438A43C0F81025D0F81425BA
:100A500013F0040F14BF0A438A43C0F81425D0F8DA
:100A60001C2513F0080F14BF0A438A43C0F81C2545
:100A7000D0F8442513F4007F14BF0A438A43C0F81A
:100A80004425D0F8402513F4407F14BF0A438A431D
:100A9000C0F84025D0F82825002B0CBF114322EACE
:100AA0000101C0F82815BDE8F00370470E4AC0F3F5
:100AB0000741D26E01238B401A420C4A1ABF02EB47
:100AC000C101496852F83110020AD1F82C354FF0B3
:100AD0000F0C0CFA02FC00F00F0023EA0C0390400C
:100AE0001843C1F82C05704700E00F404440000057
:100AF00050F82100704730B50C4605460022FFF73C
:100B000095FE21462846BDE8304000230122FFF72C
:100B100031BF30B50C4605460022FFF787FE21465F
:100B20002846BDE8304008230122FFF723BF30B537
:100B30000C46054608230122FFF71CFF21462846E4
:100B4000BDE830400122FFF771BE30B50C460546C6
:100B50000222FFF76BFE21462846BDE830400823FD
:100B60000122FFF707BF40F82120704716490428EB
:100B700004BF086840F4803018D0052804BF086816
:100B800040F4003012D0062812D00F2815D01028BB
:100B900038BF7047103800F01F01012202FA01F13E
:100BA00042090A4850F82200016070470860704707
:100BB000086840F48020086070474FF0E020016929
:100BC00041F002010161704724ED00E09041000016
:100BD00010B5FFF770FB002818BF012010BD000002
:100BE00070B52DED0A8BB0EE408AF0EE608A0546B6
:100BF000012D0FD188EE280A9FED1A1AC0EE010AC6
:100C0000B3EE0A0A30EEC00ABCEEC00A10EE100ABB
:100C1000C4B223E088EE280A10EE106A304603F0D2
:100C200051F841EC1C0B9FED100B53EC102B02F014
:100C300067FB41EC1B0B9FED0E0B53EC102B02F0EE
:100C40004BFD41EC1A0B9FED0C0B53EC102B02F0FB
:100C50004FFF41EC190B02F0ABFCC4B22046BDECD7
:100C60000A8B70BD132C8E3F6E861BF0F921094054
:100C700000000000000000400000000000003A40BA
:100C80002DE9F0472DED048BB0EE409AF0EE608A2E
:100C900080460E4614464046F0EE680AB0EE490A19
:100CA00000F03EFAB0EE408A9FEDF80AB4EEC08A3A
:100CB000F1EE10FA06DCB2EE000AB4EEC08AF1EEF4
:100CC00010FA03D29FEDF20AB0EE408AB6EE000AA7
:100CD000F4EEC08AF1EE10FA03D2B7EE000AF0EE9D
:100CE000408A012E0DD19FEDEB0AC0EE280A9FED40
:100CF000EA0A30EE600ABCEEC00A10EE100AC7B273
:100D00000CE0DFEDE60A80EEA80ADFEDE30A30EE44
:100D1000C00ABCEEC00A10EE100AC7B2B8F1010F4B
:100D200000D102263CB93146002000F0DBFA3846FB
:100D300000F097FA06E03146082000F0D3FA384672
:100D400000F0B8FA9FEDD60AB4EEC08AF1EE10FAC0
:100D500001DD01256AE09FEDD30AB4EEC08AF1EE11
:100D600010FA01DD022561E09FEDCF0AB4EEC08AE2
:100D7000F1EE10FA01DD032558E09FEDCC0AB4EE48
:100D8000C08AF1EE10FA01DD04254FE09FEDC80A9C
:100D9000B4EEC08AF1EE10FA01DD052546E09FEDC4
:100DA000C50AB4EEC08AF1EE10FA01DD06253DE079
:100DB0009FEDC10AB4EEC08AF1EE10FA01DD0725FD
:100DC00034E09FEDBE0AB4EEC08AF1EE10FA01DD08
:100DD00008252BE09FEDBA0AB4EEC08AF1EE10FAB6
:100DE00001DD092522E09FEDB70AB4EEC08AF1EEDD
:100DF00010FA01DD0A2519E0B3EE0D0AB4EEC08A3F
:100E0000F1EE10FA01DD0B2510E0B2EE0C0AB4EEA3
:100E1000C08AF1EE10FA01DD0C2507E0B1EE0C0AF4
:100E2000B4EEC08AF1EE10FA00DD0D250E2D70D261
:100E3000DFE805F06F071E354C637B92A9C0D7F140
:100E4000EFEE54B93046F0EE480A9FED9F0AFFF7E7
:100E5000C7FE814600F0F4F909E03046F0EE480A9A
:100E60009FED990AFFF7BCFE814600F012FA51E1AE
:100E700054B93046F0EE480A9FED940AFFF7B0FEF1
:100E8000814600F0DDF909E03046F0EE480A9FEDBA
:100E90008F0AFFF7A5FE814600F0FBF93AE154B94D
:100EA0003046F0EE480A9FED8A0AFFF799FE814628
:100EB00000F0C6F909E03046F0EE480A9FED840ADA
:100EC000FFF78EFE814600F0E4F923E154B9304685
:100ED000F0EE480A9FED7F0AFFF782FE814600F0A0
:100EE000AFF909E03046F0EE480A9FED7A0AFFF7C5
:100EF00077FE814600F0CDF90CE15CB93046F0EEAA
:100F0000480A9FED750AFFF76BFE814600F098F9DD
:100F10000AE0FEE03046F0EE480A9FED6F0AFFF768
:100F20005FFE814600F0B5F9F4E054B93046F0EECA
:100F3000480A9FED6A0AFFF753FE814600F080F9E8
:100F400009E03046F0EE480A9FED640AFFF748FEDC
:100F5000814600F09EF9DDE054B93046F0EE480AD3
:100F60009FED5F0AFFF73CFE814600F069F909E05A
:100F70003046F0EE480A9FED5A0AFFF731FE8146EF
:100F800000F087F9C6E054B93046F0EE480A9FED0C
:100F9000550AFFF725FE814600F052F909E0304678
:100FA000F0EE480A9FED4F0AFFF71AFE814600F067
:100FB00070F9AFE054B93046F0EE480A9FED4A0AA6
:100FC000FFF70EFE814600F03BF909E03046F0EEF7
:100FD000480A9FED450AFFF703FE814600F059F9E4
:100FE00098E054B93046F0EE480A9FED400AFFF70A
:100FF000F7FD814600F024F909E03046F0EE480A9A
:101000009FED3A0AFFF7ECFD814600F042F981E0DE
:101010002FE017E0FFE754B93046F0EE480A9FEDA5
:10102000340AFFF7DDFD814600F00AF909E0304699
:10103000F0EE480A9FED2E0AFFF7D2FD814600F040
:1010400028F967E054B93046F0EE480A9FED290AC6
:10105000FFF7C6FD814600F0F3F809E03046F0EEF8
:10106000480A9FED240AFFF7BBFD814600F011F905
:1010700050E054B93046F0EE480A9FED1F0AFFF7E2
:10108000AFFD814600F0DCF842E037E00074BD4778
:1010900000401C461F05B54200000043000080428E
:1010A0000088DF4600885F460088DF4500805F4596
:1010B0000080DF4400805F440080DF4300006A431B
:1010C0000000EA42000068420024744A0024F44907
:1010D000002474490024F448002474480024F44790
:1010E00000247447000000470000804600000046CE
:1010F0000000804500000045000080443046F0EECE
:10110000480A1FED030AFFF76BFD814600F0C1F8A6
:1011100000E000BF00BFBDEC048BBDE8F08700001D
:1011200010B52DED108B82B0F0EE408AB0EE60FA73
:1011300004461FEE100A02F0C5FD41EC1C0B9FEDAA
:101140003A1BB0EE4C0AF0EE6C0A01F005F8B0EE76
:1011500040BAF0EE60BA53EC1B2B9FED350B51EC0F
:10116000100B02F0CDF841EC1A0B9FED330B53EC52
:10117000102B02F0E5FB41EC190B01F0D3FF08EE58
:10118000100A18EE100A02F09DFD41EC1E0B9FEDB7
:10119000261BB0EE4E0AF0EE6E0A00F0DDFFB0EE58
:1011A00040DAF0EE60DA9FED240B53EC102B51EC9B
:1011B0001D0B01F0E9FF41EC1C0BB0EE4C0AF0EE08
:1011C0006C0A01F0F1FDB0EE40AAF0EE60AA18EE54
:1011D000100A02F077FD41EC1B0B53EC1A2B01F0C7
:1011E000D3FFCDE900019DED000B01F0DDFDB0EE78
:1011F000409AF0EE609A51EC190B01F093FF08EE63
:10120000100A012C04D128EE880AB0EE408A04E0CE
:101210001CB988EE880AB0EE408AB0EE480A02B0E7
:10122000BDEC108B10BD000000000000000000406D
:10123000000000000000E03F000000000000F03F60
:1012400010B504462146012000F04CF8A4102146B8
:10125000022000F047F8A4102146032000F042F8D5
:1012600010BD10B504462146042000F03BF8A41040
:101270002146052000F036F8A4102146062000F093
:1012800031F8A41004F001042146072000F02AF8E8
:1012900010BD10B504462146092000F023F8A41023
:1012A00021460A2000F01EF8A41021460B2000F071
:1012B00019F810BD10B5044621460C2000F012F8B4
:1012C000A41021460D2000F00DF8A41021460E2098
:1012D00000F008F8A41004F0010421460F2000F0EB
:1012E00001F810BD70B504460D46102C72D2DFE82F
:1012F00004F0081D32475C72879CB1C6DBF5F3F23F
:10130000F1F000220221E848FFF72DFC0022012124
:10131000E548FFF728FC00220421E448FFF723FCFE
:1013200000220221E148FFF71EFC55E100220221C4
:10133000DD48FFF718FC00220121DB48FFF713FC12
:1013400000220421D948FFF70EFC02221146D7489B
:10135000FFF709FC40E100220221D348FFF703FC1C
:1013600000220121D048FFF7FEFB04221146CF489E
:10137000FFF7F9FB00220221CC48FFF7F4FB2BE139
:1013800000220221C848FFF7EEFB00220121C648D7
:10139000FFF7E9FB04221146C448FFF7E4FB0222F1
:1013A0001146C248FFF7DFFB16E100220221BE48CA
:1013B000FFF7D9FB01221146BB48FFF7D4FB0022FF
:1013C0000421BA48FFF7CFFB00220221B748FFF7FC
:1013D000CAFB01E1EBE000220221B348FFF7C3FBA7
:1013E00001221146B048FFF7BEFB00220421AF489E
:1013F000FFF7B9FB02221146AC48FFF7B4FBEBE064
:1014000000220221A848FFF7AEFB01221146A648A0
:10141000FFF7A9FB04221146A448FFF7A4FB002212
:101420000221A248FFF79FFBD6E0002202219E483E
:10143000FFF799FB012211469B48FFF794FB04221A
:1014400011469A48FFF78FFB022211469748FFF793
:101450008AFBC1E0022211469348FFF784FB002279
:1014600001219148FFF77FFB002204218F48FFF7FD
:101470007AFB002202218D48FFF775FBACE00222C7
:1014800011468948FFF76FFB002201218648FFF7CC
:101490006AFB002204218548FFF765FB0222114602
:1014A0008248FFF760FB97E0022211467E48FFF773
:1014B0005AFB002201217C48FFF755FB042211460C
:1014C0007A48FFF750FB002202217848FFF74BFBD8
:1014D00082E057E041E02BE015E0FFE702221146F1
:1014E0007148FFF740FB002201216F48FFF73BFBEB
:1014F000042211466D48FFF736FB022211466B4865
:10150000FFF731FB68E0022211466748FFF72BFB2B
:10151000012211466448FFF726FB0022042163489C
:10152000FFF721FB002202216048FFF71CFB53E07C
:10153000022211465C48FFF716FB012211465A4869
:10154000FFF711FB002204215848FFF70CFB022291
:1015500011465648FFF707FB3EE00222114652486B
:10156000FFF701FB012211464F48FFF7FCFA042266
:1015700011464E48FFF7F7FA002202214B48FFF7C9
:10158000F2FA29E0022211464748FFF7ECFA01225D
:1015900011464548FFF7E7FA042211464348FFF792
:1015A000E2FA022211464148FFF7DDFA14E0002278
:1015B00002213D48FFF7D7FA002201213A48FFF700
:1015C000D2FA002204213948FFF7CDFA0022022185
:1015D0003648FFF7C8FA00BF00BF00224021334859
:1015E000FFF7C1FA00F056FA40F6B831B0FBF1F659
:1015F0003046FEF755FE35B1012D0FD0022D18D023
:10160000032D2CD120E0002220212948FFF7ABFA3E
:10161000002280212548FFF7A6FA2BE00022202196
:101620002348FFF7A0FA802211462048FFF79BFAD3
:1016300020E0202211461E48FFF795FA0022802163
:101640001A48FFF790FA15E0202211461848FFF7D4
:101650008AFA802211461548FFF785FA0AE000222F
:1016600020211348FFF77FFA002280210F48FFF75F
:101670007AFA00BF00BF00F00DFA40F6B831B0FBB7
:10168000F1F63046FEF70CFE402211460748FFF700
:101690006AFA00F0FFF940F6B831B0FBF1F63046D7
:1016A000FEF7FEFD70BD00000070024000300640F5
:1016B0000050064070B5002202212A48FFF753FA75
:1016C00000241CE0002204212648FFF74CFA26489B
:1016D0000068E04000F001052DB1012211462148CB
:1016E000FFF741FA04E0002201211E48FFF73BFA10
:1016F000042211461B48FFF736FA601CC4B2202CA6
:10170000E0DB00241CE0002204211648FFF72BFA3E
:1017100016480078204100F001052DB10122114644
:101720001048FFF720FA04E0002201210D48FFF7DE
:101730001AFA042211460B48FFF715FA601CC4B2CE
:10174000082CE0DB002204210648FFF70CFA0222F5
:1017500011460448FFF707FA002202210148FFF76B
:1017600002FA70BD00200640180000201C00002076
:1017700010B52DED048B0446204601F05DFF41ECD1
:10178000190B9FED080B53EC102B01F0A5FF41EC5A
:10179000180B01F00DFF05490860FFF78BFFBDEC4A
:1017A000048B10BDAE47E17A142E41401800002092
:1017B0002DE9F003AD4D02462868AD4B1840A0F16D
:1017C0008053B3F5A02358D002F03809DFF8A48283
:1017D000C2F38414B9F1100F24D0B9F1300F04BF53
:1017E00047F230504FF400130CD03820904304BF20
:1017F0004FF40040C30105D012F0380F1CBF002089
:10180000034613D09C4F12F4605F4FF0000618BFE0
:1018100000222CD057F8324044457DD307EBC2025A
:101820005268DFE0002340461524EBE7A4F10900ED
:10183000122822D29148D5F87CC04FF04C7350F852
:1018400024002CF01C0C072CA8BF4CF0100CC5F881
:101850007CC02E6D4FF4002C16F4807FD2D1BCF1E9
:10186000010C0AD02E6D16F4807FF8D0CAE712F072
:10187000380F18BFB9F1100F03D0BDE8F0030020F6
:101880007047C2F30268DFF8F8C1002257F83290BF
:10189000E14503D307EBC202526803E0521C062A5B
:1018A000F4D33246C5F8C020D5F8B020DFF8D4C153
:1018B00002EA0C0242F00042C5F8B020DFF8C8C1CD
:1018C000A4F109024C1E5CF828C0A444BCFBF1FC46
:1018D000D5F8B0101943C5F8B01008EBC80101EBFA
:1018E00041046A4902EB420201EBC40101EB8204AC
:1018F0006468C5F86441D5F864416FF0FF0808EBEF
:101900000C2C44EA0C0CC5F864C151F82210D5F82F
:10191000602102F4000200E05FE01143C5F86011AD
:10192000D5F86011D5F86021C1F38921C2F309040B
:10193000D5F86421C2F3042202F1010CD5F8642128
:1019400002F01F02521CB0FBF2F04A09C2F100087B
:101950004443424301EB481104EB5212484302EB6B
:101960009020B0FBFCF041080846002257F832C036
:10197000844503D307EBC200466802E0521C062AE6
:10198000F4D3C5F8C060D5F8600110F4000F1DBF96
:10199000D5F8B00040F08040C5F8B000D5F860013F
:1019A00004BF40F40000C5F860014FF40040D5F8D2
:1019B000682112F0010F02D1401E0028F7DC002838
:1019C00008BF002148D0D5F8B000184340F001000E
:1019D00040F01040C5F8B0003EE0521C062AFFF46B
:1019E00019AF3246C5F8C020D5F8602122F40002B4
:1019F000C5F86021D5F8B020DFF894C002EA0C02E7
:101A000042F00042C5F8B020002908BF4FF0000C9A
:101A10000AD0B0FBF1FCBCF1000F18BFACF1010C17
:101A20000CF10101B0FBF1F10846002257F83240F9
:101A3000844203D307EBC200466802E0521C062A28
:101A4000F4D3C5F8C060D5F8B00043EA8C22104347
:101A500040F00040C5F8B000D5F8B00020F47000A8
:101A6000C5F8B000BDE8F0030846704700E00F403D
:101A70000000FF700024F40004440000E84100006E
:101A800040787D0100FC0FE0E0410000544200007E
:101A9000FF0300EF70B44B4D2A6E296F11F0004F19
:101AA00014BF01F0700002F03000202808BF464843
:101AB00018D005DC88B1102808BF444812D009E0CE
:101AC000302808BF47F230500CD0702808BF4FF4C0
:101AD000004007D070BC002070477C203C4B00EADF
:101AE000121018584FF0FF3311F0004F02D011F4CC
:101AF000006F06D001F0004C02F400645CEA040CB4
:101B000036D1D5F860C1D5F8644104F01F06C4F39E
:101B10000424641C761C16FB04F46400B0FBF4F08F
:101B2000CCF309044443CCF3892C00FB0CF0D5F82A
:101B300010C004EB902042F480020CF4704CBCF511
:101B4000804F08BF234B13D009DCBCF5005F08BFF2
:101B5000214B0DD0BCF5405F08BF204B08E0BCF521
:101B6000E04F08BF1E4B03D0BCF5104F08BF1D4B04
:101B700012F4800F21D011F0004F19D011F0804FD6
:101B800009D011F4006F0CD001F0004C02F4006297
:101B90005CEA020205D0C1F3C551491CB0FBF1F06B
:101BA0000BE04000C1F38651491CB0FBF1F004E0AA
:101BB000C2F3C351491CB0FBF1F0834238BF184651
:101BC00070BC704700E00F4000093D000024F400A5
:101BD000E8410000005A620200B4C40480F0FA0236
:101BE00040787D01002D3101C0F307230749C0B2C1
:101BF000194401F07043C1F3130143EA411141EA72
:101C0000800040F0007001220260704700E60F4043
:101C1000C0F307220849C0B2114401F07042C1F379
:101C2000130142EA411141EA800040F0007000686F
:101C3000002818BF0120704700EA0F404FF0E02055
:101C4000016941F0050101617047000010B50648C7
:101C500000683221B0FBF1F4204600F00EF8FFF7E7
:101C6000EDFF00F003F810BD040000204FF0E0206D
:101C7000016941F00201016170474FF0E021401E0F
:101C80004861704710B50E480078401CC0B20C493E
:101C90000870052805DB01200A4908700020084962
:101CA0000870094A09480178094800F005F900F070
:101CB000B7F808490870084600780549487010BD13
:101CC00000000020020000202A000020290000203F
:101CD00021000020200000200448006840F470002B
:101CE00002490860024803490860704788ED00E037
:101CF0000024F40034000020014600202D2956D095
:101D000014DC212976D2DFE801F030323436383A5B
:101D10003C3E40424446484A4C4E75757575757553
:101D20007575757575757575757554004C294ED03A
:101D30000ADCA1F14102092A5CD2DFE802F03E5B35
:101D4000594E4C443C524000592948D006DC4E299B
:101D500037D052293DD055294CD136E05F2924D0C7
:101D6000622943D06F2945D13EE03F2044E0062060
:101D700042E05B2040E04F203EE066203CE06D20EA
:101D80003AE07D2038E0072036E07F2034E06F2005
:101D900032E0772030E07C202EE039202CE05E20FD
:101DA0002AE0792028E0712026E0082024E0402065
:101DB00022E0002020E03D201EE077201CE00620ED
:101DC0001AE0372018E0712016E03E2014E0382099
:101DD00012E0502010E079200EE05E200CE06E2032
:101DE0000AE0762008E005E05C2005E07C2003E0C6
:101DF000392001E0002000BF00BF704710B500226D
:101E000010210648FEF7AFFE8A2000F0A3F810224A
:101E100011460248FEF7A7FE10BD00000010064064
:101E200038B50025002210212248FEF79CFE4220F2
:101E300000F090F8002401E0601CC4B2052CFBDB2C
:101E4000002405E000F0B0F80DF80400601CC4B2F6
:101E5000042CF7DB102211461648FEF784FE9DF88D
:101E60000000012800D101259DF80100012800D1C2
:101E700002259DF80200012800D103259DF80300EA
:101E8000012800D104259DF80000102800D1052567
:101E90009DF80100102800D106259DF802001028A9
:101EA00000D107259DF80300102800D108252846F9
:101EB00038BD0000001006402DE9FF4105460E46E2
:101EC00017464FF00108002419E0285DFFF714FFC2
:101ED0000DF8140006EA080028B11DF8140040F0BF
:101EE00080000DF814004FEA48604FEA1068385D32
:101EF000012101EB44010DF80100601CC4B2082C63
:101F0000E3DB002210211248FEF72DFE402000F0F6
:101F100021F8102211460E48FEF725FE002210215E
:101F20000B48FEF720FEC02000F014F8002405E066
:101F30001DF8040000F00EF8601CC4B2102CF7DB92
:101F4000102211460248FEF70EFEBDE8FF81000098
:101F50000010064070B5044620211148FEF7E7FD49
:101F600000251AE0002201210E48FEF7FCFD04F0D6
:101F7000010028B1202211460948FEF7F4FD04E0D3
:101F8000002220210648FEF7EEFD641001221146D2
:101F90000448FEF7E8FD681CC5B2082DE2DB70BD01
:101FA000001006400030064070B500242021114882
:101FB000FEF7AFFD002518E06410002201210E4855
:101FC000FEF7D1FD012211460B48FEF7CCFD202182
:101FD0000848FEF78DFD08B144F08004002201217D
:101FE0000548FEF7C0FD681CC5B2082DE4DB20469D
:101FF00070BD000000100640003006407047826946
:1020000012F0200FFBD101607047826912F0200F9F
:1020100006BF0160012000207047D0F818C01CF0F6
:10202000080FFAD1D0F82CC02CF0100CC0F82CC03E
:10203000D0F830C02CF0010C2CF4407CC0F830C03B
:10204000D0F830C0B1EB021F34BF4CF0200C2CF0A4
:10205000200CC0F830C038BF5208C900B1FBF2F103
:10206000491C49088A09426201F03F018162C3624A
:1020700000218161C16A41F01001C162016B40F22F
:10208000013211430163704710B51648FFF7ACFDEC
:102090001548FFF7A9FD00BF1348FFF7B9FD002859
:1020A000FAD00120FEF702FD40F20140FEF7FEFCEF
:1020B00003214FF04020FEF748FD60234FF4E1324A
:1020C0000A4801680A48FFF7A8FF0AA1084800F07B
:1020D0001BF81520FEF74AFD5021054800F010F8C6
:1020E00010BD0000001800F0000800F004000020FF
:1020F00000C000400D0A48656C6C6F0D0A000000BE
:10210000826B11438163704770B505460C4604E04D
:1021100014F8011B2846FFF772FF20780028F7D13A
:1021200070BD03B401984100009850EAC12018BF67
:1021300004204A0D18BF40F0010040F2FF72B2EBDC
:10214000515F08BF40F00200012808BF052002B01F
:1021500070470000000000002DE9F04D2DED040B4C
:102160002DED0E8B96B0DDE92550279CDDF890A073
:1021700025F0004624F00048BAF1000F14BF0121F9
:10218000002101EB4502FC4953184A1093422AD31F
:10219000002814BF0123002303EB44030B44F74939
:1021A0008B4220D358EA00019FEDF59B76D0DFF8F3
:1021B000D8B35D4503D1BAF1000F05D188E0BAF17B
:1021C000000F08BF002100D0012101EB450111F5EE
:1021D000001F08D8002814BF0121002101EB440191
:1021E00011F5001F0BD99DED261B9DED240B16B09C
:1021F000BDEC0E8B04B0BDE8F04D00F0A9BE002789
:10220000002DBCBFE149884521DAE1498845A8BFD6
:1022100002271CDAC3451ADCDE4901EB28511429D8
:1022200008DDC1F1340220FA02F101FA02F2824221
:102230000DD108E058B9C1F1140228FA02F101FAEF
:1022400002F2424503D101F00101C1F1020756EA51
:102250000A0124D1002C22DA002D18BF022F01D050
:10226000012F0AD00220FEF7F8F816B0BDEC0E8B55
:1022700004B0BDE8F04D00F053BE0220FEF7EDF8CB
:1022800000F04EFE51EC100B00F03FFF41EC100B44
:1022900016B0BDEC0E8B04B0BDE8F08D18E09FEDDC
:1022A000BEAB9FEDBF8B002871D1B848804522D1CD
:1022B00005F1804010F5801008BFBAF1000F07D07B
:1022C000B3450ADC002CA8BF9DED260BE0DA0DE03B
:1022D000B0EE490AF0EE690ADAE7002C06DA9DED65
:1022E000260B51EC100B00F010FF6FE0AE48784465
:1022F00090ED000BCCE7D8454DD1002C48DA2EB13B
:1023000086423AD1BAF1000F42D126E0BAF1000F6D
:1023100013D00220FEF7A1F800F036FE8DED020B7F
:102320009DED240B8DED000B10EE900A039961F3E7
:102330001E0003909DED020BAAE78DED02AB9DED13
:10234000240B1AEE901A10EE900A8DED000B61F33B
:102350001E0003909DED020B9AE78DED028B9DED23
:10236000240B18EE901A10EE900A8DED000B61F31D
:102370001E0003909DED020B8AE709DA9DED240B08
:1023800051EC190B53EC102B00F0BAFF1EE020E0CB
:102390009DED240B7CE786421BDAB4F1804F0DD013
:1023A000A4F10050B0F1FF5013D1002D11DB9DEDD1
:1023B000240B51EC100B00F071FE07E09DED240B97
:1023C00053EC102B51EC100B00F0C2BC41EC100B85
:1023D0005EE79DED240B51EC100B00F003FEBAF10B
:1023E000000FCDE90E0142D19FED710B46B3A6F16E
:1023F000E040B0F17F600CD05E4538D1002D00DAAE
:10240000A7B3022F0CBF01204FF0FF3001F0FDF801
:10241000DCE7002D01DD002C0DDA002D01DD002CA4
:102420001FDB002D16DA002C14DB012F08BF9FEDF7
:10243000620B3FF42DAFB0EE4A0AF0EE6A0A27E7CE
:10244000022F18BF002D0CD0012F0AD1002DFFF64E
:102450001FAF06E0002DB8BF002C08DA012F3FF4B3
:1024600017AFB0EE480AF0EE680A11E71BE0012052
:1024700000EBE57050EA070115D0791EB0EE498AED
:10248000F0EE698A084308BF9FED4D8B4E4800254A
:10249000804570DD4D494E48884514DDB0420DDB66
:1024A000002C19DB2FE00120FDF7D7FF16B0BDECA3
:1024B0000E8B04B0BDE8F04D00F056BDB34502DC14
:1024C000002C09DC1FE0864202DA002C1BDA03E054
:1024D0005E452BDD002C16DD0220FDF7BEFF00F06F
:1024E00053FD8DED020B53EC1A2B51EC180B01F040
:1024F000F3F8CDE900010399019861F31E00039000
:102500009DED020BC4E60220FDF7A7FF00F04CFD95
:1025100010EE901A18EE900A8DED020B8DED008BE7
:1025200061F31E0003909DED020BB1E69DED0E0BD5
:1025300053EC192B51EC100B01F0DAFA9FED260B3E
:10254000CDE9080153EC102B9DED080B51EC100B5D
:1025500001F0C2F89FED221B53EC112B01F0F0F9B2
:102560009DED081B53EC112B01F0B6F89FED1E1BDF
:1025700053EC112B3CE08CE0FFFF1F00FFFF0F002E
:10258000000000000000F03F0000F03F0000F07F7E
:102590000000404301FCFFFF000000000000F07F4E
:1025A0000000000000000000CE210000000000003C
:1025B0000000000000000080000000000000F0FFAC
:1025C000000000000000F0BF0000E0410000F04308
:1025D000FFFFEF3F00000000000000000000D03FC0
:1025E000555555555555D53F000000000000E03FBA
:1025F00001F0A6F99DED080B41EC1A0B53EC102BE2
:1026000051EC100B01F068F853EC1A2B01F064F850
:1026100041EC1A0B9FEDFE0B53EC102B9DED080BBC
:1026200051EC100B01F058F841EC1B0B9FEDFA0B2D
:1026300051EC1A0B53EC102B01F04EF841EC1A0B35
:102640009FEDF70B53EC102B9DED080B51EC100B8D
:1026500001F042F853EC1A2B01F04AFA41EC1A0B44
:1026600051EC1B0B53EC1A2B00F08EFD0690CDE9BC
:1026700006519DED060B53EC1B2B51EC100B01F09A
:1026800037FA53EC1A2B01F05BF941EC100B00F018
:10269000A1B90020B6F5801F0EDA9FEDE30B53ECD5
:1026A000102B9DED0E0B51EC100B01F015F8CDE940
:1026B0000E016FF034000E4600EB2650A0F2FF37FB
:1026C000C6F31300DA4940F07F6646F04056884270
:1026D000D8BF002408DDD7498142C8BF012403DCEC
:1026E0000024A6F580167F1CD348784400EBC40074
:1026F0000F9690ED00CB9DED0E0B53EC1C2B51EC87
:10270000100B01F0F5F99DED0E0B41EC1B0B53EC9A
:102710001C2B51EC100B00F037FD41EC100B51EC71
:10272000190B53EC102B00F0EBFD41EC1D0B51ECA1
:102730001B0B53EC1D2B00F0CFFF41EC1A0BBF48D5
:102740008DED10AB7844109590ED000B4FF00050DC
:1027500040EA660000EB84408DED080B00F5002098
:1027600009909DED080B53EC1C2B51EC100B01F064
:10277000BFF99DED0E1B53EC112B01F0E1F841EC7C
:10278000100B53EC102B9DED100B51EC100B00F0C7
:10279000A3FF9DED080B41EC1C0B53EC102B9DEDA2
:1027A000100B51EC100B00F097FF53EC1B2B01F0BA
:1027B000C7F853EC1C2B01F09BF953EC1D2B00F0D8
:1027C0008BFF41EC1C0B53EC1A2B51EC1A0B00F055
:1027D00083FF41EC1B0B9A480621B0EE4B0AF0EE4A
:1027E0006B0A784400F01DFBB0EE401AF0EE601A60
:1027F000B0EE41DAF0EE61DA53EC1B2B51EC1B0B1F
:1028000000F06AFF53EC1D2B00F066FF9DED100BEE
:1028100041EC1B0B53EC1A2B51EC100B00F0B4FCE9
:1028200053EC1C2B00F058FF53EC1B2B00F0ACFCBE
:102830009DED100B41EC1B0B53EC102B51EC100BCE
:1028400000F04AFF41EC1D0B9FED7FEB53EC1E2B7C
:1028500000F09AFC53EC1B2B00F096FC0890CDE99D
:1028600008519DED080B53EC1E2B51EC100B01F0A1
:102870003FF953EC1D2B01F03BF953EC1B2B01F0FE
:102880005FF89DED080B41EC1D0B53EC102B9DEDFB
:10289000100B51EC100B00F01FFF41EC1B0B53EC25
:1028A0001A2B51EC1D0B00F017FF9DED080B41ECAE
:1028B0001A0B53EC102B51EC1C0B00F00DFF53ECDA
:1028C0001A2B00F061FC41EC1A0B51EC1B0B53EC82
:1028D0001A2B00F059FC0C90CDE90C519DED0C0B1E
:1028E00053EC1B2B51EC100B01F002F953EC1A2B9B
:1028F00001F026F841EC1B0B9FED550B53EC102B10
:102900009DED0C0B51EC100B00F0E6FE41EC1A0BA8
:102910009FED510B51EC1B0B53EC102B00F0DCFE28
:1029200041EC1B0B9FED4E0B53EC102B9DED0C0B54
:1029300051EC100B00F0D0FE53EC1B2B00F024FCEC
:1029400041EC100B4848784400EBC40090ED001BAC
:1029500051EC100B53EC112B00F016FC41EC1B0B4F
:10296000384600F052FECDE9080153EC1B2B51EC28
:102970001A0B00F009FC41EC100B3C48784400EBCA
:10298000C40090ED00CB51EC100B53EC1C2B00F06D
:10299000FBFB9DED081B53EC112B00F0F5FB0690A3
:1029A000CDE906519DED080B53EC102B9DED060B68
:1029B00051EC100B01F09CF853EC1C2B01F098F833
:1029C00053EC1A2B01F094F853EC1B2B00F0B8FFDA
:1029D00041EC100B9DED261B53EC102B8DED001BD5
:1029E00000959DED260B51EC100B00F075FE9DED52
:1029F000000B41EC1A0B53EC102B9DED260B51EC08
:102A0000100B01F075F89DED061B53EC112B2FE018
:102A1000000000604715F73FFE822B654715F73F22
:102A200044DF5DF80BAE543E000000000000404360
:102A30008E9803007AB60B004A1D0000781D000036
:102A4000821C0000000000000000000000000840A0
:102A5000000000E009C7EE3FFD033ADC09C7EE3F86
:102A6000F5015B14E02F3EBE0E1B0000C81A0000EB
:102A700000F032FE53EC1A2B00F086FB9DED060BA6
:102A800041EC1A0B53EC102B9DED000B51EC100B8D
:102A900000F022FECDE90C019DED0C0B51EC1A0B60
:102AA00053EC102B00F070FBCDE902010C46AA4953
:102AB0008C422FDB611A084318D19DED0C0B53ECAF
:102AC000102B9DED020B51EC100B01F011F841ECB5
:102AD0001B0B9FEDA30B51EC1A0B53EC102B00F0CA
:102AE00053FB53EC1B2B00F0F5FE2DD20220FDF71B
:102AF000B4FC00F049FA10EE901A18EE900A8DED31
:102B0000020B8DED008B61F31E0003909DED020B17
:102B1000FFF7BEBB944A24F00041914214D393497D
:102B2000214408437FF4EFAC9DED0C0B53EC102BCC
:102B30009DED020B51EC100B00F0DAFF53EC1A2B59
:102B400000F0C8FE7FF6DFAC24F000408849894AD7
:102B5000002601EB205182422BDA481C4FF48011F1
:102B600021FA00F02044844AC0F30A517A44A1F2C9
:102B7000FF3192ED000B814A8DED080BCA4020EA2F
:102B80000202C0F3130040F48010C1F1140120FAD6
:102B900001F60992002CB8BF76429DED080B53EC6C
:102BA000102B9DED0C0B51EC100B00F0A1FFCDE9AB
:102BB0000C019DED0C0B51EC1A0B53EC102B00F09B
:102BC000E3FA9FED6F0B0890CDE9085153EC102B01
:102BD0009DED080B51EC100B00F07EFD41EC1B0B42
:102BE0009FED690B53EC102B9DED080B51EC100B76
:102BF00000F072FD9DED0C0B41EC1C0B53EC102B07
:102C00009DED080B51EC100B00F072FF53EC1A2BEA
:102C100000F096FE9FED5E1B53EC112B00F05CFD67
:102C200053EC1C2B00F0B0FA41EC1A0B51EC1B0BCF
:102C300053EC1A2B00F0A8FACDE902019DED020B2E
:102C400053EC1B2B51EC100B00F052FF53EC1A2BE2
:102C500000F076FE9DED020B41EC1A0B53EC102BAD
:102C600051EC100B00F038FDCDE908014A489DED0C
:102C7000080B0521784400F0D4F89DED081B51ECB9
:102C8000100B53EC112B00F027FD9DED021B53ECB4
:102C9000112B00F055FECDE906019DED020B53EC22
:102CA0001A2B51EC100B00F017FD53EC1A2B00F00F
:102CB0006BFA9FED3B0B41EC1A0B53EC102B9DED87
:102CC000060B51EC100B00F013FF9DED060B41ECD1
:102CD0001B0B53EC102B9DED020B51EC100B00F075
:102CE000FBFC53EC1B2B00F00BFB53EC1A2B00F0FE
:102CF000FFFE9DED021B53EC112B00F0F9FE53EC8F
:102D0000192B00F01DFECDE9020101EB0650011563
:102D10000029C8BF039015DC9DED020B324651EC33
:102D2000100B01F07CF8FFF7FCF9042808BF00F055
:102D30003BF932469DED020B51EC100B01F06FF8A0
:102D4000CDE902019DED020B51EC180B53EC102B59
:102D500000F0C2FCFFF73ABB00009040000000000A
:102D6000FE822B654715973C00CC904000346F3FA6
:102D700001FCFFFF0000E03F50190000FFFF0F00C3
:102D800000000000432EE63F396CA80C615C20BEB9
:102D9000EF39FAFE422EE63F201800000000000046
:102DA000000000000000004000B52DED048BB0EEE7
:102DB000409AF0EE609A83B051EC190B00F0CCFD14
:102DC00041EC180B18EE100A18EE901A8DED008BDE
:102DD000002818BF0120084320F00040C0F17F60A8
:102DE00000F1E040C00F14D019EE101A19EE900A4D
:102DF0008DED009B002918BF0121084320F0004001
:102E0000C0F17F6000F1E040C00F04BF0120FDF77A
:102E100024FBB0EE480A03B0F0EE680ABDEC048B68
:102E200000BD70B504462DED028B4D1E00EBC500B4
:102E3000B0EE408AF0EE608A90ED000B35F00600AF
:102E400017D053EC182B51EC100B00F045FC41EC63
:102E5000100B6D1E04EBC50090ED001B51EC100B28
:102E600053EC112B00F090F941EC100B35F00600FB
:102E7000E7D1022D36D0042D1CD0062D1CBFBDEC91
:102E8000028B70BD53EC182B51EC100B00F024FC9E
:102E900094ED0A1B53EC112B00F076F953EC182B30
:102EA00000F01AFC94ED081B53EC112B00F06CF9A8
:102EB00041EC100B53EC182B51EC100B00F00CFCF8
:102EC00094ED061B53EC112B00F05EF953EC182B1C
:102ED00000F002FC94ED040B53EC102B00F054F9BD
:102EE00041EC100B53EC182B51EC100B00F0F4FBE1
:102EF00094ED021B53EC112B00F046F953EC182B08
:102F000000F0EAFB94ED001B53EC112B00F03CF9B0
:102F1000BDEC028B41EC100B70BD00000000000006
:102F20009FED070B10B553EC102B9FED070B51ECE9
:102F3000100B00F0E5F941EC100B10BD0000000093
:102F40000000000000000000000000000000F03F52
:102F500010B553EC112B51EC100B00F015F941ECAE
:102F6000100B10BD000000009FED050B10B553ECD9
:102F7000102B51EC100B00F0C3F941EC100B10BDFD
:102F800000000000000000009FED050B10B553ECA1
:102F9000102B51EC100B00F09FFB41EC100B10BDFF
:102FA00000000000000000709FED050B10B553EC11
:102FB000102B51EC100B00F08FFB41EC100B10BDEF
:102FC000000000000000001000BF011EA0F1010081
:102FD000FBD1704700EB800100BF0A1EA1F1010187
:102FE000FBD1704782B0CDE9000121F00040019093
:102FF0009DED000B02B051EC100B7047FDF700FC8B
:1030000000BF1F4800780328FBDBFEF7F7FEFDF743
:1030100069FA082211461B48FDF7A5FD0822114652
:103020001848FDF7A0FD002208211648FDF79BFD7A
:103030004FF47A70FEF79CFB0A20FFF7C5FF4FF4B0
:103040007A70FEF795FB0A20FFF7BEFF00220221EF
:103050000120DFED0D0A9FED0D0AFDF711FE0A209C
:10306000FFF7B2FF0BE001210948FDF741FD0949D7
:10307000087008460078FDF739FB07490860F2E759
:103080000000002000200640F4FD343F00401C46B4
:1030900000D003401E0000200800002000B52DEDE8
:1030A000048B83B041EC190B00F056FC41EC180B7B
:1030B00018EE100A18EE901A8DED008B002818BF3C
:1030C0000120084320F00040C0F17F6000F1E040A3
:1030D000C00F14D019EE101A19EE900A8DED009B56
:1030E000002918BF0121084320F00040C0F17F6093
:1030F00000F1E040C00F04BF0120FDF7AEF951EC34
:10310000180B03B0BDEC048B00BD81F0004170478B
:1031100080F00040704721F00041704720F00040EF
:103120007047000021F00042A2F16052B2F5801F0A
:1031300001F0004328BFD2F17F6C0BD95FEA001C7D
:1031400043EAC20242EB507018BF704728BF20F01C
:1031500001007047B2F5801FBCBF184670474FEAA8
:10316000410C1CF5001F02D2084600F021BE70B5CC
:1031700000F05CFB00000089FFF7F6BF4FF0004055
:10318000A0F580007047000010B591EA030F48BF1A
:1031900083F0004300F1B484841A71EB030C05D270
:1031A000121943EB0C03001B61EB0C01DFF824E167
:1031B0004FEA1154A4EB135C1EEA430F18BF9EEABA
:1031C000445F73D023EA0E03DCF1200E21EA0451A0
:1031D00043F4801332D322FA0CFE10EB0E0023FAD4
:1031E0000CFE41EB0E01CCF1200E03FA0EFE10EBAB
:1031F0000E0051F10001B1F5801FCCF1200E32D24A
:1032000001EB045112FA0EF2BDE8104058BF7047AE
:10321000401C38BF5FEA420218BF7047002814BF45
:1032200020F0010041F100014FEA410313F5001FB6
:1032300038BF7047A1F1C04100F046BB012A43EB03
:103240000302ACF1200CDCF11F0E32BF4FF0000E78
:1032500023FA0CF310EB030041EB0451B4EB115FC4
:10326000D0D0A1EB045101F5801149085FEA30008C
:1032700001EB04510ED350F1000038BF12FA0EFEDC
:1032800008D1BDE81040C9E7401C38BF5FEA4202E0
:10329000CAD1C3E7BDE810404FEA410313F5001F50
:1032A00038BF7047A1F1C04100F00EBB9EEA445FF9
:1032B00008D011EA5E0FBDE8104004BF01F00041E4
:1032C00000207047BDE8104070B500F0AFFA00BFB5
:1032D00064FBBE3E0000E0FF02494FF0000000F03A
:1032E0006CBD00BF0000F87F491058BFC1F14041DC
:1032F0005B1058BFC3F140438B42EFF3008070472F
:103300002DE9C04130B4DFF8A0C23CEA111418BF67
:103310003CEA131400F0EC8081EA03051CEA111466
:1033200044EAD57418BF1CEA131500F0C780A4EB5B
:1033300005044FF0004545EAC12145EAC32341EAAF
:10334000505143EA525304F17F74994204F500341A
:103350004FEAC0204FEAC22208BF904200F09C8092
:103360004FEA13650FF24016765D4FEA134506FBF0
:1033700005F7C7F1807706FB07F74FEAD737A7FBBA
:1033800003687642C8F58038A7FB06CE38BFA8F19F
:10339000010807FB08E64FF0000EA6FB028CE6FBD7
:1033A00003CEDCF1000CCEF1004E38BFAEF1010EC1
:1033B000A6FB0C584FF000074FF00005E6FB0E8708
:1033C000A1FB08C6A0FB07CE16EB0E0645F10005D3
:1033D000E1FB076515F1E04E7EBFA4F580345FEA9E
:1033E00046066D4116F1800745F100054FEA1727A3
:1033F0004FEA066647EA0567A6F1DE46B6F1805F4A
:103400004FEA15251FD9384624F0010C05EBC4718D
:10341000BCF1FE6F01EB0C1102D8F0BCBDE80081DD
:1034200024425CBF01F5801E9EEAC47F02D4F0BC3A
:10343000BDE80081244238D4F0BCA1F1C041BDE810
:10344000004100F041BA4FEAD22242EA43524FEA29
:10345000D323A7FB02864FEAD02040EA415007FB66
:1034600003661EEA0E0F4FEAD12105FB026658BF24
:10347000A6EB0056B6EB00564FEA520E4EEAC37E5C
:1034800018EB0E0E56EB530EBDD518EB02085E413D
:103490007F1C55F10005B6E74FF480154FF000078B
:1034A0004FF000064FF00008ADE7F0BC4FF0000011
:1034B00001F1C04101F00041BDE8008111EA0C1F9B
:1034C0000CEA131500D00CE013EA0C1F00F0258065
:1034D0004FF00000F0BC81EA030101F00041BDE8BB
:1034E0000081F0BCBDE8004181EA030100F0ECB9C5
:1034F000F0BCBDE8004170B500F098F9097EFC3ED3
:1035000000F007B881EA03014FF0000001F000412C
:10351000704781EA030100F0D7B9F0BCBDE8004173
:103520004FF0000021497047FFFDFBF9F7F5F4F279
:10353000F0EEEDEBE9E8E6E4E3E1E0DEDDDBDAD84E
:10354000D7D5D4D3D1D0CFCDCCCBCAC8C7C6C5C4AC
:10355000C2C1C0BFBEBDBCBBBAB9B8B7B6B5B4B3C3
:10356000B2B1B0AFAEADACABAAA9A8A8A7A6A5A4AE
:10357000A3A3A2A1A09F9F9E9D9C9C9B9A99999872
:103580009797969595949393929191908F8F8E8E15
:103590008D8C8C8B8B8A89898888878786858584A2
:1035A00084838382828181800000FF070000F87F8E
:1035B0004FEA1153A3F58063D3F11E03A8BFD3F1E3
:1035C000200C08DB4FF0004242EAC12252EA50527E
:1035D00032FA03F0704709420BD4102BC4BF00200D
:1035E000704703F5787CBCF1FF3F05D04FF0FF300A
:1035F00070474FF00000704770B500F017F900BF3A
:103600004992248000207047F0E710F0004248BF44
:103610004042B0FA80F310FA03F10AD0C3F11D035F
:1036200003F580634FEA415002EB035202EBD121D4
:1036300070474FF000007047B0FA80F310FA03F1C2
:103640000AD0C3F11D0303F580634FEA41504FEAEE
:10365000035202EBD12170474FF000007047000089
:1036600051EA030C17D41CF5801F58BFBCF5801F0E
:1036700000F10680994218BF704708BF904270471A
:1036800007D711F5801F58BF13F5801F19D4994231
:103690007047894270471CF5801F08D5BCF5801F14
:1036A000F7D58B4218BF704708BF824270474FF46E
:1036B000001C1CEB410F38BF1CEB430F01D28B42A7
:1036C000704770B500F0B2F8922449004FF00051F5
:1036D0004FF08053FFF708BEDFF848C170B51CEA11
:1036E000111E1EBF1CEA13159EEA0C0F95EA0C0F63
:1036F00000F06F8081EA030423EA4C134EEAD47E83
:1037000021EA4C1141F4801143F48013AE44A1FB33
:10371000024CA0FB0365AEF17F7E361955EB0C051C
:10372000A1FB034C4CF10003A0FB021C16EB0C06A2
:10373000654153F10003094218BF46F0010613F436
:10374000007F0BD14FEA03314FEA0530340341EAE1
:10375000155140EA16506FF003020AE04FEAC32108
:103760004FEAC520F40241EA555140EA56506FF045
:10377000020202EB2E4201EB025585EACE710AD01D
:103780005FEA440C18BF24F0004450F1000041F1FE
:10379000000120EAD47040F2FE7C624500D270BD88
:1037A000A84214BF4FF080444FF04044002E08BFA1
:1037B0000024BEF1806FA8BFA1F1C041BDE87040F8
:1037C00080F282804FF0000001F1C04101F0004121
:1037D00070479EEA0C0F0CEA131518BF95EA0C0F00
:1037E00006D04FF0000081EA030E0EF0004170BDDC
:1037F00000F01CF88900013E00F007B800F009B89D
:103800004FEA430C5FEA5C5C08D081EA030100F0F8
:103810005BB84FEA410C5FEA5C5CF6D14FF0000008
:10382000014970470000FF070000F87F0EF1020E0B
:103830002EF0030E5EF8046B364205D4012A43EBEA
:10384000030515F5001F12D8012841EB010C1CF5EA
:10385000001F0CD80ED14FEAD17C15F5001F0CEBE0
:103860004C0C0CF1020C08BF4CEBD37C04E04FF085
:10387000080C01E04FEAD37C0CEB4C0526FA05F668
:1038800006F00706B6F1040C06D20EEB860CBDE876
:1038900070404CF0010C6047DFE80CF0090B0202AD
:1038A0004FF000414FF00000A1F5002170BD194616
:1038B0001046012851EB010418BFD4F5001484BF51
:1038C000002001F0004170BD0808A0F500114FEA8A
:1038D0003101704753EA010C17D41CF5801F58BF03
:1038E000BCF5801F00F106808B4218BF704708BFEF
:1038F0008242704707D713F5801F58BF11F5801F0C
:1039000019D48B4270479B4270471CF5801F08D525
:10391000BCF5801FF7D5994218BF704708BF904289
:1039200070474FF4001C1CEB430F38BF1CEB410FDA
:1039300001D2994270470FB40CBC03BCFFF7C1BE63
:1039400091EA030F10B581F000413FF525AC83F0FB
:10395000004300F0D5B800002DE9F04101F5801CCE
:10396000BCF5001FC0F2A9804FEA115C21EA0C519E
:103970000CF1FD0C41F480115FEA5C0C0CF5C07C8D
:1039800001D34000494130A4890241EA90518702A5
:103990008E0E0A0CA45D04FB04F602FB06F6C6F1CB
:1039A0004046A4FB0662F60D46EA422606FB06F4F4
:1039B000A4FB01235242C3F1404338BF5B1EA6FB68
:1039C00002420024E6FB0324D20B42EA4446A6FB53
:1039D0000623A1FB02E2A3FB07E4E3FB614264428E
:1039E000C2F1404E38BFAEF1010EA6FB04234FF0EA
:1039F0000002E6FB0E32A2FB03463400E2FB6264E7
:103A0000A1FB06E6A4FB07E8E4FB61687642C8F187
:103A1000405838BFA8F10108A2FB06E4A3FB08E563
:103A2000E2FB6854A1FB05E6A7FB04E8E1FB648622
:103A300018F1200556F10006A809A8F11B08B109E4
:103A400008F03F08B8F10A0F40EA86601CD901EB84
:103A50000C51BDE8F08100BFFCF5EEE8E2DDD8D303
:103A6000CFCBC7C3C0BDB9B6B4B1AEACA9A7A5A3EF
:103A7000A19F9D9B9A9896959392908F8D8C8B8900
:103A80008887868584838281A0FB006800FB01F221
:103A900008EB4208B8EB872807D5341858EB010427
:103AA000D5D5401C51F10001D1E7341A78EB01045F
:103AB000CDD4401E71F10001C9E75FEA4C0C5FEA0A
:103AC0009C5C0DD105D34FF0000001F00041BDE832
:103AD000F081BDE8F04170B5FFF7A8FE6DDBFFBED9
:103AE000BDE8F0414FF00000004970470000F87F4A
:103AF00010B591EA030F48BF83F000433FF54CAB8C
:103B0000841A71EB030C07D212198CF0004C43EBB2
:103B10000C03001B61EB0C01DFF8A4E14FEA115428
:103B2000A4EB135C1EEA430F18BF9EEA445F00F04B
:103B3000B08023EA6E03524221EA0451C3EB6E03C4
:103B400038BF5B1EDCF1200E25D322FA0CFE10EBF1
:103B50000E0043FA0CFE41EB0E01CCF1200E03FAED
:103B60000EFE10EB0E0051F10001CCF1200E29D415
:103B700012FA0EF201EB0451BDE8104058BF704735
:103B8000401C1CBFB2F1004F704700280CBF491CFD
:103B900020F00100704712EB020E43EB030218BF46
:103BA0004FF0010E4EEA4202ACF1200CDCF11E0E89
:103BB00054D943FA0CFE10EB0E0051F1FF31CCF159
:103BC0001E0ED5D50EF1010E12FA0EFE404141EB4C
:103BD000010101EB445C5FEA5C5C10D910EBDE7024
:103BE00001EB045138BFBEF1004FBDE8104018BFD3
:103BF000704700280CBF491C20F00100704730D2EC
:103C00004FEAD42C11F5001124F400641BD0B1FA52
:103C100081F20B3AA41AA41ED2F12003914030FA8B
:103C200003F31943904001EBCC71002C01EB0451DC
:103C3000BDE81040A8BF704701F1C0414FF000003F
:103C400001F000417047B0FA80F310FA03F100D19F
:103C500010BDE41A173C4805C90AE4E701EB04511A
:103C600010BD491001EB0451BDE810404FEA30008F
:103C700002E04FF0000170474A0008BF0042F8D050
:103C8000B2F5001F28BF704701F000414FF000005F
:103C900070479EEA445F07D011EA5E0FBDE810400E
:103CA00004BF002100207047BDE8104070B5FFF749
:103CB000BDFD00BF40DFF63E83F000411046704777
:103CC0000000E0FF43004FEAD30C4FEA3C0C4340B6
:103CD0001FBF40070CF1605113F0FE4F70471CF0FE
:103CE000006F03D100200CF0004170470CF000433E
:103CF00043EA507010B540EACC0000F00EF800BF67
:103D0000000000924FEA0001FFF7DEBD4FF00041D6
:103D10004FF00000A1F5002170470EF1020E2EF0C9
:103D2000030E5EF8044B244204D44FEA4102B2F180
:103D30007F4F11D84FEA4003B3F17F4F0CD80ED11B
:103D40004FEAD07CB2F17F4F0CEB4C0C0CF1020C23
:103D500008BF4CEBD17C04E04FF0080C01E04FEAC7
:103D6000D17C0CEB4C0324FA03F404F00704B4F107
:103D7000040C06D20EEB840CBDE810404CF0010C94
:103D80006047DFE80CF0070802024FF00040A0F5A2
:103D9000800010BD0846420018BFD2F1807288BF73
:103DA00000F0004010BD4FF04070E1EE100A704787
:103DB000FF2141EAD050C00570470CF00F03092BDA
:103DC00008BF082000F059800A2B0BD0082B18BF21
:103DD000704708BF1CF0400F0AD04FF000004FF0B2
:103DE000000170471CF0400F18BF4FF000407047B3
:103DF0001CF0100F08D020F0704300F07F4242EA20
:103E0000D3014FEA4370704700F0604021F07F42D9
:103E100042EA000201F07F4040EA727070474FF0C2
:103E2000FF0C4CF4E06C1CEA11531CBF9CEA030C21
:103E30009445C2BFDA4201EB02517047002B0DD00E
:103E4000BCF1000F0FD0002A01F00041A4BF41F0E7
:103E5000E04141F07F614FF00000704701F0004108
:103E60004FF00000704750EA01334FF09B0C18BF31
:103E70004CF0806C7FF430AA70471CF4801F11D086
:103E80001CF4E02F03D06FEACC31490070474FF0AB
:103E90004050EFF3008222F0704242EA000282F3C7
:103EA000008870474FF0000070470000004000405D
:103EB000100000000080054010000000005000408D
:103EC000110000000090054011000000006000405B
:103ED0001200000000A00540120000000070004029
:103EE0001300000000B00540130000000040024035
:103EF0001400000000C00540140000000050024003
:103F00002E00000000D005402E000000006002409E
:103F10002F00000000E005402F000000007002406C
:103F20003000000000F005403000000000D00340E9
:103F30004600000000000640460000000010064059
:103F40004700000000200640480000000030064006
:103F50007F00000000400640800000000050064046
:103F600084000000006006408C000000004000401B
:103F700010000000008005401000000000500040CC
:103F8000110000000090054011000000006000409A
:103F90001200000000A00540120000000070004068
:103FA0001300000000B00540130000000040024074
:103FB0001400000000C00540140000000050024042
:103FC0002E00000000D005402E00000000600240DE
:103FD0002F00000000E005402F00000000700240AC
:103FE0003000000000F005403000000000D0034029
:103FF000430000000000064043000000001006409F
:10400000440000000020064045000000003006404B
:1040100058000000004006405900000000500640D3
:104020005C00000000600640640000000070064074
:104030006C000000008006406D000000009006400B
:104040007F0000000040004000800540005000401C
:10405000009005400060004000A005400070004056
:1040600000B005400040024000C005400050024042
:1040700000D005400060024000E0054000700240B2
:1040800000F0054000D0034000000640001006404C
:104090000010064000200640002006400030064088
:1040A00000300640004006400040064000500640F8
:1040B0000050064000600640006006400070064068
:1040C00000700640008006400080064000900640D8
:1040D00000900640000700000006000000050000F8
:1040E00000040000000300000002000000010000C6
:1040F000000000000000000018ED00E01CED00E0F2
:1041000020ED00E000E400E004E400E008E400E06A
:104110000CE400E010E400E014E400E018E400E047
:104120001CE400E020E400E024E400E028E400E0F7
:104130002CE400E030E400E034E400E038E400E0A7
:104140003CE400E040E400E044E400E048E400E057
:104150004CE400E050E400E054E400E058E400E007
:104160005CE400E060E400E064E400E068E400E0B7
:104170006CE400E070E400E074E400E078E400E067
:104180007CE400E080E400E084E400E088E400E017
:1041900000E100E004E100E008E100E00CE100E003
:1041A00010E100E080E100E084E100E088E100E06F
:1041B0008CE100E090E100E000E200E004E200E0D9
:1041C00008E200E00CE200E010E200E080E200E043
:1041D00084E200E088E200E08CE200E090E200E0AF
:1041E00000688909001C4E0E40420F0000201C0090
:1041F00080841E0000802500999E36000040380013
:1042000000093D0000803E0000004B00404B4C0088
:1042100000204E00808D5B0000C05D0000807000BB
:1042200000127A0000007D0080969800001BB70005
:104230000080BB00C0E8CE00647ADA000024F400FD
:104240000000FA0080A81201002D310100366E0135
:1042500040787D01400000000000000000010000E7
:104260003E0008000000000000010000A000000067
:1042700002000000000100003454010000000000B2
:10428000000100002B70060000000000000100008B
:1042900028000000000000000001000027000100CD
:1042A00000000000000100002000000000000000ED
:1042B00000010000500000000200000000010000AA
:1042C0001AAC000000000000000100001794090073
:1042D000000000000001000016980500000000002A
:1042E00000010000140000000000000000010000B8
:1042F000138008000000000000010000A000000082
:104300000800000000010000100000000000000094
:104310000001000028000000020000000001000071
:1043200040000000040000000001000060000000E8
:1043300000000000000100005D000C000000000013
:10434000000100005000000000000000000100001B
:104350004E000200000000000001000041AC01001E
:1043600000000000000100003C0000000000000010
:10437000000100003A800900000000000001000078
:1043800030000000000000000001000028000000D4
:1043900000000000000100002700010000000000F4
:1043A0000001000023600600000000000001000082
:1043B0002160080000000000000100001E00000055
:1043C00000000000000100001DC00400000000000B
:1043D0000001000050000000020000000001000089
:1043E00018000000000000000001000014000000A0
:1043F0000000000000010000600000000400000058
:10440000000100000024F40030003000005A620275
:104410009100910000879303D200D20000B4C4043D
:104420001301130100E1F50554015401000E2707A3
:104430009501950100000000000000000000F03F21
:10444000000000000000F83F000000000000000035
:104450000000004003B8E23F000000000000000040
:1044600006D0CF43EBFD4C3E033333333333E33FCE
:10447000FFAB6FDBB66DDB3F4D268F515555D53FFA
:1044800001411DA96074D13F65DBC9934A86CD3FC8
:10449000EF4E454A287ECA3F3E5555555555C53FB6
:1044A00093BDBE166CC166BF2CDE25AF6A56113FA8
:1044B000F16BD2C541BDBBBED0A4BE726937663EAA
:1044C0000000000000000000E844000000000020A0
:1044D000380000003C0200002045000038000020A9
:1044E0006002000058020000000000000000000010
:1044F00000000000303030300D0A000000000000E5
:104500000000000000000101005F205F202020204B
:104510002000010000000000000000000024F40062
:04000005000002D124
:00000001FF
