:020000040000FA
:1000000098020020C9020000D1020000D3020000C3
:10001000D5020000D7020000D90200000000000055
:10002000000000000000000000000000DB020000F3
:10003000DD02000000000000DF020000AD0F000044
:10004000E3020000E5020000E7020000E902000010
:10005000EB02000025130000EF020000F102000097
:10006000F3020000F5020000F7020000F9020000B0
:10007000FB020000FD020000FF020000010300007F
:10008000030300000503000007030000090300004C
:100090000B0300000D0300000F030000110300001C
:1000A00013030000150300001703000019030000EC
:1000B0001B0300001D0300001F03000021030000BC
:1000C000230300002503000027030000290300008C
:1000D0002B0300002D0300002F030000310300005C
:1000E000330300003503000037030000390300002C
:1000F0003B0300003D0300003F03000041030000FC
:1001000043030000450300004703000049030000CB
:100110004B0300004D0300004F030000510300009B
:10012000530300005503000057030000590300006B
:100130005B0300005D0300005F030000610300003B
:1001400063030000650300006703000081030000F3
:100150000000000000000000830300008503000091
:100160008703000089030000000000008B030000EB
:100170008D0300008F030000910300009303000033
:100180009503000097030000990300009B03000003
:100190009D0300009F030000A1030000A3030000D3
:1001A000A5030000A7030000A9030000AB030000A3
:1001B000AD030000AF030000B1030000B303000073
:1001C000B5030000B7030000B9030000BB03000043
:1001D000BD030000BF030000C1030000C303000013
:1001E000C5030000C7030000C9030000CB030000E3
:1001F000CD030000CF030000D1030000D3030000B3
:1002000000F002F800F03CF80AA090E8000C8244EC
:100210008344AAF10107DA4501D100F031F8AFF2C9
:10022000090EBAE80F0013F0010F18BFFB1A43F0D4
:1002300001031847C41A0000E41A0000103A24BF52
:1002400078C878C1FAD8520724BF30C830C144BF3B
:1002500004680C607047000000230024002500267D
:10026000103A28BF78C1FBD8520728BF30C148BF19
:100270000B6070471FB501F075FA1FBD10B510BDBA
:1002800000F0E2F81146FFF7F5FF01F0EDF800F09D
:1002900000F903B4FFF7F2FF03BC00F007F9000018
:1002A000EFF3108072B67047EFF310807047EFF3F2
:1002B000108062B6704730BF704780F31188704776
:1002C000EFF31180704700004548804745480047DC
:1002D000FEE7FEE7FEE7FEE7FEE7FEE7FEE7FEE7F6
:1002E000FEE7FEE7FEE7FEE7FEE7FEE7FEE7FEE7E6
:1002F000FEE7FEE7FEE7FEE7FEE7FEE7FEE7FEE7D6
:10030000FEE7FEE7FEE7FEE7FEE7FEE7FEE7FEE7C5
:10031000FEE7FEE7FEE7FEE7FEE7FEE7FEE7FEE7B5
:10032000FEE7FEE7FEE7FEE7FEE7FEE7FEE7FEE7A5
:10033000FEE7FEE7FEE7FEE7FEE7FEE7FEE7FEE795
:10034000FEE7FEE7FEE7FEE7FEE7FEE7FEE7FEE785
:10035000FEE7FEE7FEE7FEE7FEE7FEE7FEE7FEE775
:10036000FEE7FEE7FEE7FEE7FEE7FEE7FEE7FEE765
:10037000FEE7FEE7FEE7FEE7FEE7FEE7FEE7FEE755
:10038000FEE7FEE7FEE7FEE7FEE7FEE7FEE7FEE745
:10039000FEE7FEE7FEE7FEE7FEE7FEE7FEE7FEE735
:1003A000FEE7FEE7FEE7FEE7FEE7FEE7FEE7FEE725
:1003B000FEE7FEE7FEE7FEE7FEE7FEE7FEE7FEE715
:1003C000FEE7FEE7FEE7FEE7FEE7FEE7FEE7FEE705
:1003D000FEE7FEE704480549034A054B7047000065
:1003E0000110000001020000980000209802002087
:1003F000980000204FF0000200B513469446964640
:10040000203922BFA0E80C50A0E80C50B1F1200127
:10041000BFF4F7AF090728BFA0E80C5048BF0CC0D5
:100420005DF804EB890028BF40F8042B08BF704733
:1004300048BF20F8022B11F0804F18BF00F8012BA5
:100440007047704770477047754600F02BF8AE460E
:1004500005006946534620F00700854618B020B5D0
:10046000FFF7B8FFBDE820404FF000064FF000074F
:100470004FF000084FF0000B21F00701AC46ACE84C
:10048000C009ACE8C009ACE8C009ACE8C0098D46B9
:10049000704710B50446AFF300802046BDE8104019
:1004A000FFF7F7BE004870473800002001491820C8
:1004B000ABBEFEE7260002007047000010B50F48F3
:1004C00000F026FD0E4800F023FD02210D4800F04B
:1004D000BAFA00231A4603210B4800F043F86223BE
:1004E00000220321084800F086F80321064800F0A6
:1004F0007BF80321044800F009F810BD003800F033
:10050000040800F00040024000800340012202FA8B
:1005100001F1C160704732B1C0684FF0011202FAB8
:1005200001F108407047406801228A4042F480325D
:10053000104010F4803F08BF704740F470204FF423
:10054000803202FA01F1884370470A4601F00F0138
:1005500001236FF30F0203FA01F11143826A114381
:100560008162704730B4446989004FF00F0C0CFA77
:1005700001FC02F00F0524EA0C048D402C43446179
:10058000046A03F0030324EA0C0C03FA01F14CEAB9
:100590000101016202F00F018B1F032B84BF30BCED
:1005A0007047C900C3694FF0300C30390CFA01FCB8
:1005B00002F0300223EA0C0302FA01F11943C1618F
:1005C00030BC704700EB411000F14001002003E017
:1005D0008B6842F8043B401CCB6813F4807F18BF43
:1005E00070470828F4D370470268012303FA01F129
:1005F00011430160704710B400EB4110910050F8B6
:1006000040CF0F228A4003F00F042CEA020C8C40EA
:100610004CEA040CC0F800C0D0F818C0C3F303249F
:100620002CEA020C8C404CEA040CC0F818C0D0F83C
:1006300004C0C3F303142CEA020C8C404CEA040CF3
:10064000C0F804C0D0F81CC0C3F303542CEA020C59
:100650008C404CEA040CC0F81CC013F4702F4FF00F
:1006600001040DD0D0F814C0C3F302432CEA0202F7
:100670008B401A434261026904FA01F1114304E01C
:10068000026904FA01F122EA0101016110BC70471C
:1006900008B503210A48FFF758FF00BF00220321D5
:1006A0000748FFF738FF0028F8D003210448FFF778
:1006B0002DFF6A4603210248FFF784FF009808BD1A
:1006C00000800340F0B5B3B00546C82101A8FFF78C
:1006D00091FE002600270024002D69D13A480078B9
:1006E000012865D100203849087000BF08E0FFF7F5
:1006F000CFFF01A941F82700142000F0ACFE7F1CB9
:10070000322FF4D3002408E001A850F82400B042AE
:1007100002D901A850F82460641C322CF4D32B4871
:10072000066000684FF47A71B0FBF1F03030284970
:100730000870264800684FF47A71B0FBF1F201FBB3
:1007400012006421B0FBF1F03030214948701F489D
:1007500000686421B0FBF1F201FB12000A21B0FB3A
:10076000F1F030301A498870184800680A21B0FB4F
:10077000F1F201FB120030301549C87008460178CB
:10078000144800F0D6FD12484178124800F0D1FD1F
:100790000F4881780F4800F0CCFD0D48C1780D4816
:1007A00000F0C7FD0A4841790A4800F0C2FD07E0A1
:1007B000012D05D10448007810B9012002490870C4
:1007C000304633B0F0BD00001F00002008000020BC
:1007D0000C00002000C0004010B50749074800F099
:1007E00025FA0749086000F021F800F0C3FB00F08B
:1007F000DFFD00F095F910BD002D3101800600F1FC
:1008000004000020D0F8003412F0010F14BF0B4395
:100810008B43C0F8003412F0020FD0F8202414BF2C
:10082000114322EA0101C0F82014704710B5204896
:1008300000F06EFB00BF1E4800F07EFB0028FAD0DF
:100840001B48801E00F064FB00BF1948801E00F0AA
:1008500073FB0028F9D00F21164800F010F9012190
:10086000154800F0FEF80A2301221146124800F054
:1008700029F80F48401E00F04BFB00BF0C48401EFB
:1008800000F05AFB0028F9D00948401C00F040FB5A
:1008900000BF0748401C00F04FFB0028F9D0302172
:1008A000064800F0ECF80121054800F0E8F810BD1A
:1008B0000A0800F00020064000D003400010064067
:1008C000003006402DE9F00301264FF0000C03250F
:1008D000C2F3411706FA0CF40C4211D0D0F8C48FC1
:1008E0004FEA4C0405FA04F928EA0908C0F8C48F55
:1008F000D0F8C48F07FA04F448EA0404C0F8C44FDF
:100900000CF1010C0CF0FF0CBCF1080FE2D3D0F895
:1009100000C512F0010F14BF4CEA010C2CEA010CC7
:10092000C0F800C5D0F804C512F0020F14BF4CEA9D
:10093000010C2CEA010CC0F804C5D0F808C512F06F
:10094000040F14BF4CEA010C2CEA010CC0F808C5D6
:10095000D0F818C512F0080F14BF4CEA010C2CEAAD
:10096000010CC0F818C512F0100FD0F83C2514BFC8
:100970000A438A43C0F83C25D0F80C2513F0010F38
:1009800014BF0A438A43C0F80C25D0F8102513F091
:10099000020F14BF0A438A43C0F81025D0F814256B
:1009A00013F0040F14BF0A438A43C0F81425D0F88B
:1009B0001C2513F0080F14BF0A438A43C0F81C25F6
:1009C000D0F8442513F4007F14BF0A438A43C0F8CB
:1009D0004425D0F8402513F4407F14BF0A438A43CE
:1009E000C0F84025D0F82825002B0CBF114322EA7F
:1009F0000101C0F82815BDE8F00370470E4AC0F3A6
:100A00000741D26E01238B401A420C4A1ABF02EBF7
:100A1000C101496852F83110020AD1F82C354FF063
:100A20000F0C0CFA02FC00F00F0023EA0C039040BC
:100A30001843C1F82C05704700E00F40081900006A
:100A400050F82100704730B50C4605460022FFF7EC
:100A5000D9FE21462846BDE8304000230122FFF799
:100A600031BF30B50C4605460022FFF7CBFE2146CC
:100A70002846BDE8304008230122FFF723BF30B5E8
:100A80000C46054608230122FFF71CFF2146284695
:100A9000BDE830400122FFF7B5BE30B50C46054633
:100AA0000222FFF7AFFE21462846BDE8304008236A
:100AB0000122FFF707BF40F821207047164904289C
:100AC00004BF086840F4803018D0052804BF0868C7
:100AD00040F4003012D0062812D00F2815D010286C
:100AE00038BF7047103800F01F01012202FA01F1EF
:100AF00042090A4850F822000160704708607047B8
:100B0000086840F48020086070474FF0E0200169D9
:100B100041F002010161704724ED00E0541A000029
:100B200010B5FFF7C4FB002818BF012010BD00005E
:100B300070B5002202212A48FFF7BDFF00241CE007
:100B4000002204212648FFF7B6FF26480068E0404F
:100B500000F001052DB1012211462148FFF7ABFF3E
:100B600004E0002201211E48FFF7A5FF04221146E0
:100B70001B48FFF7A0FF601CC4B2202CE0DB002460
:100B80001CE0002204211648FFF795FF1648007864
:100B9000204100F001052DB1012211461048FFF758
:100BA0008AFF04E0002201210D48FFF784FF0422A0
:100BB00011460B48FFF77FFF601CC4B2082CE0DB36
:100BC000002204210648FFF776FF0222114604485E
:100BD000FFF771FF002202210148FFF76CFF70BD93
:100BE00000200640180000201C00002010B52DED4C
:100BF000048B0446204600F0A4FC41EC190B9FED49
:100C0000080B53EC102B00F0AFFC41EC180B00F07C
:100C10006BFC05490860FFF78BFFBDEC048B10BD32
:100C2000AE47E17A142E4140180000202DE9F00370
:100C3000AD4D02462868AD4B1840A0F18053B3F586
:100C4000A02358D002F03809DFF8A482C2F384143C
:100C5000B9F1100F24D0B9F1300F04BF47F2305072
:100C60004FF400130CD03820904304BF4FF40040E1
:100C7000C30105D012F0380F1CBF0020034613D06B
:100C80009C4F12F4605F4FF0000618BF00222CD07A
:100C900057F8324044457DD307EBC2025268DFE08B
:100CA000002340461524EBE7A4F10900122822D2C4
:100CB0009148D5F87CC04FF04C7350F824002CF0CC
:100CC0001C0C072CA8BF4CF0100CC5F87CC02E6D76
:100CD0004FF4002C16F4807FD2D1BCF1010C0AD065
:100CE0002E6D16F4807FF8D0CAE712F0380F18BFC7
:100CF000B9F1100F03D0BDE8F00300207047C2F334
:100D00000268DFF8F8C1002257F83290E14503D3BA
:100D100007EBC202526803E0521C062AF4D33246A3
:100D2000C5F8C020D5F8B020DFF8D4C102EA0C0223
:100D300042F00042C5F8B020DFF8C8C1A4F10902B2
:100D40004C1E5CF828C0A444BCFBF1FCD5F8B010E4
:100D50001943C5F8B01008EBC80101EB41046A491A
:100D600002EB420201EBC40101EB82046468C5F8A6
:100D70006441D5F864416FF0FF0808EB0C2C44EA9D
:100D80000C0CC5F864C151F82210D5F8602102F4AA
:100D9000000200E05FE01143C5F86011D5F8601172
:100DA000D5F86021C1F38921C2F30904D5F8642183
:100DB000C2F3042202F1010CD5F8642102F01F02F3
:100DC000521CB0FBF2F04A09C2F10008444342430E
:100DD00001EB481104EB5212484302EB9020B0FBA8
:100DE000FCF041080846002257F832C0844503D37E
:100DF00007EBC200466802E0521C062AF4D3C5F88D
:100E0000C060D5F8600110F4000F1DBFD5F8B00028
:100E100040F08040C5F8B000D5F8600104BF40F450
:100E20000000C5F860014FF40040D5F8682112F0C9
:100E3000010F02D1401E0028F7DC002808BF002166
:100E400048D0D5F8B000184340F0010040F0104001
:100E5000C5F8B0003EE0521C062AFFF419AF324636
:100E6000C5F8C020D5F8602122F40002C5F8602141
:100E7000D5F8B020DFF894C002EA0C0242F000423C
:100E8000C5F8B020002908BF4FF0000C0AD0B0FB15
:100E9000F1FCBCF1000F18BFACF1010C0CF1010129
:100EA000B0FBF1F10846002257F83240844203D3E8
:100EB00007EBC200466802E0521C062AF4D3C5F8CC
:100EC000C060D5F8B00043EA8C22104340F00040E7
:100ED000C5F8B000D5F8B00020F47000C5F8B00037
:100EE000BDE8F0030846704700E00F400000FF70C7
:100EF0000024F400C81C0000AC1A000040787D01FA
:100F000000FC0FE0A41A0000181B0000FF0300EF14
:100F1000C0F307230749C0B2194401F07043C1F37D
:100F2000130143EA411141EA800040F000700122C0
:100F30000260704700E60F40C0F307220849C0B2C4
:100F4000114401F07042C1F3130142EA411141EA38
:100F5000800040F000700068002818BF0120704732
:100F600000EA0F404FF0E020016941F00501016106
:100F70007047000010B5064800683221B0FBF1F45C
:100F8000204600F00EF8FFF7EDFF00F003F810BD6B
:100F9000040000204FF0E020016941F002010161EE
:100FA00070474FF0E021401E4861704710B50E4871
:100FB0000078401CC0B20C490870052805DB0120F0
:100FC0000A490870002008490870094A0948017850
:100FD000094800F005F900F0B7F80849087008461C
:100FE00000780549487010BD000000200200002074
:100FF0002A000020290000202100002020000020DD
:101000000448006840F4700002490860024803493F
:101010000860704788ED00E00024F40034000020F0
:10102000014600202D2956D014DC212976D2DFE894
:1010300001F030323436383A3C3E40424446484A69
:101040004C4E7575757575757575757575757575A0
:10105000757554004C294ED00ADCA1F14102092AD1
:101060005CD2DFE802F03E5B594E4C443C524000FB
:10107000592948D006DC4E2937D052293DD0552970
:101080004CD136E05F2924D0622943D06F2945D165
:101090003EE03F2044E0062042E05B2040E04F205D
:1010A0003EE066203CE06D203AE07D2038E00720FD
:1010B00036E07F2034E06F2032E0772030E07C2083
:1010C0002EE039202CE05E202AE0792028E07120F3
:1010D00026E0082024E0402022E0002020E03D20FF
:1010E0001EE077201CE006201AE0372018E071206F
:1010F00016E03E2014E0382012E0502010E0792065
:101100000EE05E200CE06E200AE0762008E005E0AC
:101110005C2005E07C2003E0392001E0002000BFD6
:1011200000BF704710B5002210210648FFF7C3FC2E
:101130008A2000F0A3F8102211460248FFF7BBFCFA
:1011400010BD00000010064038B500250022102117
:101150002248FFF7B0FC422000F090F8002401E0A4
:10116000601CC4B2052CFBDB002405E000F0B0F8E5
:101170000DF80400601CC4B2042CF7DB10221146E9
:101180001648FFF798FC9DF80000012800D10125C2
:101190009DF80100012800D102259DF802000128D8
:1011A00000D103259DF80300012800D104259DF8F6
:1011B0000000102800D105259DF80100102800D15D
:1011C00006259DF80200102800D107259DF8030090
:1011D000102800D10825284638BD00000010064020
:1011E0002DE9FF4105460E4617464FF00108002441
:1011F00019E0285DFFF714FF0DF8140006EA080057
:1012000028B11DF8140040F080000DF814004FEADA
:1012100048604FEA1068385D012101EB44010DF888
:101220000100601CC4B2082CE3DB0022102112482C
:10123000FFF741FC402000F021F8102211460E4833
:10124000FFF739FC002210210B48FFF734FCC020C7
:1012500000F014F8002405E01DF8040000F00EF87A
:10126000601CC4B2102CF7DB102211460248FFF7B5
:1012700022FCBDE8FF8100000010064070B5044666
:1012800020211148FFF7FBFB00251AE00022012175
:101290000E48FFF710FC04F0010028B1202211468F
:1012A0000948FFF708FC04E0002220210648FFF768
:1012B00002FC6410012211460448FFF7FCFB681C85
:1012C000C5B2082DE2DB70BD0010064000300640BC
:1012D00070B5002420211148FFF7C3FB002518E05A
:1012E0006410002201210E48FFF7E5FB01221146A0
:1012F0000B48FFF7E0FB20210848FFF7A1FB08B1EE
:1013000044F08004002201210548FFF7D4FB681C4B
:10131000C5B2082DE4DB204670BD00000010064079
:10132000003006407047826912F0200FFBD1016047
:101330007047826912F0200F06BF01600120002073
:101340007047D0F818C01CF0080FFAD1D0F82CC0A4
:101350002CF0100CC0F82CC0D0F830C02CF0010CD0
:101360002CF4407CC0F830C0D0F830C0B1EB021F84
:1013700034BF4CF0200C2CF0200CC0F830C038BF2B
:101380005208C900B1FBF2F1491C49088A094262BE
:1013900001F03F018162C36200218161C16A41F0B5
:1013A0001001C162016B40F20132114301637047C9
:1013B00010B51648FFF7ACFD1548FFF7A9FD00BFB3
:1013C0001348FFF7B9FD0028FAD00120FFF716FBFC
:1013D00040F20140FFF712FB03214FF04020FFF7DE
:1013E0005CFB60234FF4E1320A4801680A48FFF7CA
:1013F000A8FF0AA1084800F01BF81520FFF75EFBC4
:101400005021054800F010F810BD0000001800F051
:10141000000800F00400002000C000400D0A4865EC
:101420006C6C6F0D0A000000826B11438163704782
:1014300070B505460C4604E014F8011B2846FFF77A
:1014400072FF20780028F7D170BD00BF011EA0F107
:101450000100FBD1704700EB800100BF0A1EA1F123
:101460000101FBD170470000FFF7B6F900BF194832
:1014700000780328FBDBFFF755FEFFF71FF8082273
:1014800011461548FFF717FB082211461248FFF7CF
:1014900012FB002208211048FFF70DFB4FF47A7071
:1014A000FFF7A4FB0A20FFF7D0FF4FF47A70FFF795
:1014B0009DFB0A20FFF7C9FF0BE001210748FFF75A
:1014C000BFFA0749087008460078FFF7FBF805499E
:1014D0000860F2E7000000200020064000D0034032
:1014E0001E000020080000204FEA1153A3F580637E
:1014F000D3F11E03A8BFD3F1200C08DB4FF000424C
:1015000042EAC12252EA505232FA03F070470942CD
:101510000BD4102BC4BF0020704703F5787CBCF1BE
:10152000FF3F05D04FF0FF3070474FF0000070478D
:1015300070B500F0C3F800BF4992248000207047C6
:10154000F0E7B0FA80F310FA03F10AD0C3F11D03FB
:1015500003F580634FEA41504FEA035202EBD12179
:1015600070474FF000007047DFF848C170B51CEAC3
:10157000111E1EBF1CEA13159EEA0C0F95EA0C0FF4
:1015800000F06F8081EA030423EA4C134EEAD47E14
:1015900021EA4C1141F4801143F48013AE44A1FBC5
:1015A000024CA0FB0365AEF17F7E361955EB0C05AE
:1015B000A1FB034C4CF10003A0FB021C16EB0C0634
:1015C000654153F10003094218BF46F0010613F4C8
:1015D000007F0BD14FEA03314FEA0530340341EA73
:1015E000155140EA16506FF003020AE04FEAC3219A
:1015F0004FEAC520F40241EA555140EA56506FF0D7
:10160000020202EB2E4201EB025585EACE710AD0AE
:101610005FEA440C18BF24F0004450F1000041F18F
:10162000000120EAD47040F2FE7C624500D270BD19
:10163000A84214BF4FF080444FF04044002E08BF32
:101640000024BEF1806FA8BFA1F1C041BDE8704089
:1016500080F282804FF0000001F1C04101F00041B2
:1016600070479EEA0C0F0CEA131518BF95EA0C0F91
:1016700006D04FF0000081EA030E0EF0004170BD6D
:1016800000F01CF88900013E00F007B800F009B82E
:101690004FEA430C5FEA5C5C08D081EA030100F08A
:1016A0005BB84FEA410C5FEA5C5CF6D14FF000009A
:1016B000014970470000FF070000F87F0EF1020E9D
:1016C0002EF0030E5EF8046B364205D4012A43EB7C
:1016D000030515F5001F12D8012841EB010C1CF57C
:1016E000001F0CD80ED14FEAD17C15F5001F0CEB72
:1016F0004C0C0CF1020C08BF4CEBD37C04E04FF017
:10170000080C01E04FEAD37C0CEB4C0526FA05F6F9
:1017100006F00706B6F1040C06D20EEB860CBDE807
:1017200070404CF0010C6047DFE80CF0090B02023E
:101730004FF000414FF00000A1F5002170BD1946A7
:101740001046012851EB010418BFD4F5001484BFE2
:10175000002001F0004170BD0808A0F500114FEA1B
:10176000310170474FF04070E1EE100A7047000001
:101770000040004010000000008005401000000004
:1017800000500040110000000090054011000000D2
:10179000006000401200000000A0054012000000A0
:1017A000007000401300000000B00540130000006E
:1017B000004002401400000000C00540140000007A
:1017C000005002402E00000000D005402E00000016
:1017D000006002402F00000000E005402F000000E4
:1017E000007002403000000000F0054030000000B2
:1017F00000D0034046000000000006404600000004
:10180000001006404700000000200640480000008D
:10181000003006407F0000000040064080000000CD
:101820000050064084000000006006408C0000006C
:101830000040004010000000008005401000000043
:101840000050004011000000009005401100000011
:10185000006000401200000000A0054012000000DF
:10186000007000401300000000B0054013000000AD
:10187000004002401400000000C0054014000000B9
:10188000005002402E00000000D005402E00000055
:10189000006002402F00000000E005402F00000023
:1018A000007002403000000000F0054030000000F1
:1018B00000D0034043000000000006404300000049
:1018C00000100640440000000020064045000000D3
:1018D000003006405800000000400640590000005B
:1018E000005006405C0000000060064064000000FC
:1018F000007006406C000000008006406D00000093
:10190000009006407F00000000400040008005403D
:1019100000500040009005400060004000A00540DD
:101920000070004000B005400040024000C005408B
:101930000050024000D005400060024000E0054039
:101940000070024000F0054000D003400000064057
:10195000001006400010064000200640002006400F
:10196000003006400030064000400640004006407F
:1019700000500640005006400060064000600640EF
:10198000007006400070064000800640008006405F
:10199000009006400090064000070000000600008E
:1019A0000005000000040000000300000002000029
:1019B00000010000000000000000000018ED00E041
:1019C0001CED00E020ED00E000E400E004E400E0B5
:1019D00008E400E00CE400E010E400E014E400E0BF
:1019E00018E400E01CE400E020E400E024E400E06F
:1019F00028E400E02CE400E030E400E034E400E01F
:101A000038E400E03CE400E040E400E044E400E0CE
:101A100048E400E04CE400E050E400E054E400E07E
:101A200058E400E05CE400E060E400E064E400E02E
:101A300068E400E06CE400E070E400E074E400E0DE
:101A400078E400E07CE400E080E400E084E400E08E
:101A500088E400E000E100E004E100E008E100E0EB
:101A60000CE100E010E100E080E100E084E100E052
:101A700088E100E08CE100E090E100E000E200E0BD
:101A800004E200E008E200E00CE200E010E200E026
:101A900080E200E084E200E088E200E08CE200E026
:101AA00090E200E000688909001C4E0E40420F00E1
:101AB00000201C0080841E0000802500999E3600B6
:101AC0000040380000093D0000803E0000004B004F
:101AD000404B4C0000204E00808D5B0000C05D003C
:101AE0000080700000127A0000007D00809698004F
:101AF000001BB7000080BB00C0E8CE00647ADA00AB
:101B00000024F4000000FA0080A81201002D310129
:101B100000366E0140787D014000000000000000AA
:101B2000000100003E00080000000000000100006D
:101B3000A000000002000000000100003454010079
:101B400000000000000100002B70060000000000F3
:101B5000000100002800000000000000000100005B
:101B6000270001000000000000010000200000002C
:101B70000000000000010000500000000200000012
:101B8000000100001AAC000000000000000100008D
:101B900017940900000000000001000016980500DD
:101BA0000000000000010000140000000000000020
:101BB0000001000013800800000000000001000088
:101BC000A00000000800000000010000100000005C
:101BD00000000000000100002800000002000000DA
:101BE00000010000400000000400000000010000AF
:101BF0006000000000000000000100005D000C001B
:101C00000000000000010000500000000000000083
:101C1000000100004E000200000000000001000072
:101C200041AC010000000000000100003C00000089
:101C300000000000000100003A80090000000000E0
:101C40000001000030000000000000000001000062
:101C50002800000000000000000100002700010033
:101C600000000000000100002360060000000000EA
:101C700000010000216008000000000000010000D9
:101C80001E00000000000000000100001DC0040054
:101C900000000000000100005000000002000000F1
:101CA000000100001800000000000000000100001A
:101CB00014000000000000000001000060000000AF
:101CC00004000000000100000024F4003000300097
:101CD000005A62029100910000879303D200D20063
:101CE00000B4C4041301130100E1F50554015401CB
:101CF000000E270795019501181D00000000002027
:101D0000380000003C020000501D00003800002098
:101D10006002000058020000000000000000000007
:101D200000000000303030300D0A000000000000DC
:101D30000000000000000101005F205F2020202043
:101D40002000010000000000000000000024F4005A
:04000005000002C92C
:00000001FF
